:03000000020A19D8
:0C0A1900787FE4F6D8FD758112020A60B7
:0A0BD400029E240C9848401E0118F0
:040BF90002110000E5
:040B7A007F107E2743
:0B0B7E00EF1FAC0670011E4C70F62249
:100B1900E4F508F509120AA5120B6A7590FF120B84
:100B29007AE4F590120B7A0509E509AE0870020519
:100B3900081424D4F582740B3EF583E49354FEF52E
:0F0B4900A0E509640A450870D2F508F50980CCCB
:03000B00020800E8
:10080000C0E0C0F0C083C082C0D075D000C000C0BE
:0D08100001C002C003C004C005C006C0073F
:10081D00750D00750E04750F007510070512E512A4
:10082D0070020511D3940AE5116480948040067519
:10083D001100751200758CFC758A1820B7047F01A4
:10084D0080027F0020B5047E0180027E00EE5FFFF6
:10085D0020B6047E0180027E00EE5F600C120BF06C
:10086D00120B58759000120BDE20B7047F01800229
:10087D007F0020B5047E0180027E00EE5FFF30B662
:10088D00047E0180027E00EE5F6016E51245117058
:10089D0003120BF0E512B51008E511B50F03120B9D
:1008AD00C530B7047F0180027F0020B5047E018032
:1008BD00027E00EE5FFF20B6047E0180027E00EE18
:1008CD005F6016E51245117003120BF0E512B50EBF
:1008DD0008E511B50D03120B8930B7047F018002B5
:1008ED007F0020B5047E0180027E00EE5FFF30B6F2
:1008FD00047E0180027E00EE5F6016E512451170E8
:10090D0003120BF0E512B51008E511B50F03120B2C
:10091D00A720B7047F0180027F0030B5047E0180DF
:10092D00027E00EE5FFF20B6047E0180027E00EEA7
:10093D005F6016E51245117003120BF0E512B5104C
:10094D0008E511B50F03120BB620B7047F01800225
:10095D007F0030B5047E0180027E00EE5FFF30B671
:10096D00047E0180027E00EE5F6016E51245117077
:10097D0003120BF0E512B50E08E511B50D03120BC0
:10098D008930B7047F0180027F0030B5047E01807D
:10099D00027E00EE5FFF20B6047E0180027E00EE37
:1009AD005F6016E51245117003120BF0E512B510DC
:1009BD0008E511B50F03120B9830B7047F018002C3
:1009CD007F0030B5047E0180027E00EE5FFF30B601
:1009DD00047E0180027E00EE5F6016E51245117007
:1009ED0003120BF0E512B50E08E511B50D03120B50
:0109FD008970
:1009FE00D007D006D005D004D003D002D001D0004D
:0B0A0E00D0D0D082D083D0F0D0E032F6
:100B6A00758901758CFC758A18D2AFD2A9D28C22EC
:100AA500E4F50CAF0C7401A807088002C333D8FC29
:100AB500F4F5907FB87E0B120B7E050CE50CC39404
:100AC5000840E0E4F50CAF0C7401A807088002C3E8
:100AD50033D8FCF4F5907FB87E0B120B7E050CE540
:100AE5000CC3940840E0C287C2A0E4F50C120BDEEB
:100AF500050CE50CC394C840F47F887E13120B7E69
:100B0500E4F50C120BDE050CE50CC394C840F4D2D9
:030B150087D2A0E4
:010B180022BA
:090BDE00B2867F147E00020B7E3A
:0F0B8900C280D281C282D283C287C2A0D286220A
:090BE700D280C281D282C28322B5
:0F0B9800C280C281C282D283C2A0D287D28622FB
:0F0BA700C280D281C282C283C287D2A0D28622EC
:0F0BB600D280C281C282D283C2A0D287D28622CD
:0F0BC500C280D281D282C283C287D2A0D28622BE
:090BF000C280C281C282C28322CC
:100B5800C287D2A0120B7AD287C2A07F107E27024A
:020B68000B7E02
:100A2500020B19E493A3F8E493A34003F68001F2C3
:100A350008DFF48029E493A3F85407240CC8C333D2
:100A4500C4540F4420C8834004F456800146F6DFA1
:100A5500E4800B0102040810204080900BF9E47E2D
:100A6500019360BCA3FF543F30E509541FFEE49396
:100A7500A360010ECF54C025E060A840B8E493A35D
:100A8500FAE493A3F8E493A3C8C582C8CAC583CA88
:100A9500F0A3C8C582C8CAC583CADFE9DEE780BE40
:010BFD0000F7
:00000001FF
